{
  "contractName": "FiftyFifty",
  "abi": [
    {
      "inputs": [],
      "payable": false,
      "stateMutability": "nonpayable",
      "type": "constructor"
    },
    {
      "payable": true,
      "stateMutability": "payable",
      "type": "fallback"
    },
    {
      "anonymous": false,
      "inputs": [
        {
          "indexed": true,
          "name": "_user",
          "type": "address"
        },
        {
          "indexed": false,
          "name": "_value",
          "type": "uint256"
        },
        {
          "indexed": true,
          "name": "_round",
          "type": "uint256"
        }
      ],
      "name": "Jackpot",
      "type": "event"
    },
    {
      "anonymous": false,
      "inputs": [
        {
          "indexed": true,
          "name": "_winner",
          "type": "address"
        },
        {
          "indexed": true,
          "name": "_looser",
          "type": "address"
        },
        {
          "indexed": false,
          "name": "_bet",
          "type": "uint256"
        },
        {
          "indexed": false,
          "name": "_payBack",
          "type": "uint256"
        }
      ],
      "name": "Bet",
      "type": "event"
    },
    {
      "constant": false,
      "inputs": [],
      "name": "withdrawDeposit",
      "outputs": [],
      "payable": false,
      "stateMutability": "nonpayable",
      "type": "function"
    },
    {
      "constant": true,
      "inputs": [],
      "name": "currentJackpot",
      "outputs": [
        {
          "name": "",
          "type": "uint256"
        }
      ],
      "payable": false,
      "stateMutability": "view",
      "type": "function"
    }
  ],
  "bytecode": "0x6080604052610140604051908101604052806701bc16d674ec800068ffffffffffffffffff1681526020016703782dace9d9000068ffffffffffffffffff1681526020016706f05b59d3b2000068ffffffffffffffffff168152602001670de0b6b3a764000068ffffffffffffffffff168152602001671bc16d674ec8000068ffffffffffffffffff168152602001673782dace9d90000068ffffffffffffffffff168152602001676f05b59d3b20000068ffffffffffffffffff16815260200167de0b6b3a7640000068ffffffffffffffffff1681526020016801bc16d674ec80000068ffffffffffffffffff1681526020016803782dace9d900000068ffffffffffffffffff16815250600090600a61011b9291906104a5565b506101406040519081016040528067034bc4fdde27c00068ffffffffffffffffff16815260200167069789fbbc4f800068ffffffffffffffffff168152602001670d2f13f7789f000068ffffffffffffffffff168152602001671a5e27eef13e000068ffffffffffffffffff1681526020016734bc4fdde27c000068ffffffffffffffffff1681526020016769789fbbc4f8000068ffffffffffffffffff16815260200167d2f13f7789f0000068ffffffffffffffffff1681526020016801a5e27eef13e0000068ffffffffffffffffff16815260200168034bc4fdde27c0000068ffffffffffffffffff16815260200168069789fbbc4f80000068ffffffffffffffffff16815250600b90600a6102349291906104a5565b5061014060405190810160405280662386f26fc1000067ffffffffffffffff16815260200166470de4df82000067ffffffffffffffff168152602001668e1bc9bf04000067ffffffffffffffff16815260200167011c37937e08000067ffffffffffffffff1681526020016702386f26fc10000067ffffffffffffffff168152602001670470de4df820000067ffffffffffffffff1681526020016708e1bc9bf040000067ffffffffffffffff1681526020016711c37937e080000067ffffffffffffffff168152602001672386f26fc100000067ffffffffffffffff16815260200167470de4df8200000067ffffffffffffffff16815250601690600a61033d9291906104f2565b50610140604051908101604052806608e1bc9bf0400067ffffffffffffffff1681526020016611c37937e0800067ffffffffffffffff168152602001662386f26fc1000067ffffffffffffffff16815260200166470de4df82000067ffffffffffffffff168152602001668e1bc9bf04000067ffffffffffffffff16815260200167011c37937e08000067ffffffffffffffff1681526020016702386f26fc10000067ffffffffffffffff168152602001670470de4df820000067ffffffffffffffff1681526020016708e1bc9bf040000067ffffffffffffffff1681526020016711c37937e080000067ffffffffffffffff16815250602190600a6104449291906104f2565b50607860305534801561045657600080fd5b5033603260006101000a81548173ffffffffffffffffffffffffffffffffffffffff021916908373ffffffffffffffffffffffffffffffffffffffff1602179055506001602c81905550610563565b82600b81019282156104e1579160200282015b828111156104e0578251829068ffffffffffffffffff169055916020019190600101906104b8565b5b5090506104ee919061053e565b5090565b82600b810192821561052d579160200282015b8281111561052c578251829067ffffffffffffffff16905591602001919060010190610505565b5b50905061053a919061053e565b5090565b61056091905b8082111561055c576000816000905550600101610544565b5090565b90565b610888806105726000396000f30060806040526004361061004c576000357c0100000000000000000000000000000000000000000000000000000000900463ffffffff168063117df088146106b2578063f9cee0bd146106c9575b60008060008060008061005e346106f4565b955061271060014303406001900481151561007557fe5b06945060008514156101e657602e6000602c548152602001908152602001600020805490506001430340600190048115156100ac57fe5b069350602e6000602c548152602001908152602001600020858154811015156100d157fe5b9060005260206000200160009054906101000a900473ffffffffffffffffffffffffffffffffffffffff169250602d6000602c5481526020019081526020016000205491508273ffffffffffffffffffffffffffffffffffffffff166108fc839081150290604051600060405180830381858888f1935050505015801561015c573d6000803e3d6000fd5b506000602d6000602c54815260200190815260200160002081905550602c548373ffffffffffffffffffffffffffffffffffffffff167f256609b3631a3103eba398fc72e575f7cc48472c00621c0a8d3dc8611cddd5fb846040518082815260200191505060405180910390a36101df6001602c5461074d90919063ffffffff16565b602c819055505b600073ffffffffffffffffffffffffffffffffffffffff16603160009054906101000a900473ffffffffffffffffffffffffffffffffffffffff1673ffffffffffffffffffffffffffffffffffffffff16141561031e5733603160006101000a81548173ffffffffffffffffffffffffffffffffffffffff021916908373ffffffffffffffffffffffffffffffffffffffff160217905550602e6000602c548152602001908152602001600020603160009054906101000a900473ffffffffffffffffffffffffffffffffffffffff1690806001815401808255809150509060018203906000526020600020016000909192909190916101000a81548173ffffffffffffffffffffffffffffffffffffffff021916908373ffffffffffffffffffffffffffffffffffffffff160217905550506106aa565b602e6000602c5481526020019081526020016000203390806001815401808255809150509060018203906000526020600020016000909192909190916101000a81548173ffffffffffffffffffffffffffffffffffffffff021916908373ffffffffffffffffffffffffffffffffffffffff1602179055505060026001430340600190048115156103ab57fe5b0690506103e6601687600b811015156103c057fe5b0154602d6000602c5481526020019081526020016000205461074d90919063ffffffff16565b602d6000602c54815260200190815260200160002081905550610424602187600b8110151561041157fe5b015460335461074d90919063ffffffff16565b603381905550600081141561056057603160009054906101000a900473ffffffffffffffffffffffffffffffffffffffff1673ffffffffffffffffffffffffffffffffffffffff166108fc600b88600b8110151561047e57fe5b01549081150290604051600060405180830381858888f193505050501580156104ab573d6000803e3d6000fd5b503373ffffffffffffffffffffffffffffffffffffffff16603160009054906101000a900473ffffffffffffffffffffffffffffffffffffffff1673ffffffffffffffffffffffffffffffffffffffff167f2f7e081b637f086fe9a4ba1a33ef520aed864eb0339560563b8990894172e7cc600b89600b8110151561052c57fe5b015460008a600b8110151561053d57fe5b0154604051808381526020018281526020019250505060405180910390a3610667565b3373ffffffffffffffffffffffffffffffffffffffff166108fc600b88600b8110151561058957fe5b01549081150290604051600060405180830381858888f193505050501580156105b6573d6000803e3d6000fd5b503373ffffffffffffffffffffffffffffffffffffffff16603160009054906101000a900473ffffffffffffffffffffffffffffffffffffffff1673ffffffffffffffffffffffffffffffffffffffff167f2f7e081b637f086fe9a4ba1a33ef520aed864eb0339560563b8990894172e7cc600b89600b8110151561063757fe5b015460008a600b8110151561064857fe5b0154604051808381526020018281526020019250505060405180910390a35b6000603160006101000a81548173ffffffffffffffffffffffffffffffffffffffff021916908373ffffffffffffffffffffffffffffffffffffffff1602179055505b505050505050005b3480156106be57600080fd5b506106c761076e565b005b3480156106d557600080fd5b506106de61083f565b6040518082815260200191505060405180910390f35b6000806000839150600090505b600081600b8110151561071057fe5b01548414151561074357600b81141561072857600080fd5b61073c60018261074d90919063ffffffff16565b9050610701565b8092505050919050565b600080828401905083811015151561076457600080fd5b8091505092915050565b603260009054906101000a900473ffffffffffffffffffffffffffffffffffffffff1673ffffffffffffffffffffffffffffffffffffffff163373ffffffffffffffffffffffffffffffffffffffff161415156107ca57600080fd5b603260009054906101000a900473ffffffffffffffffffffffffffffffffffffffff1673ffffffffffffffffffffffffffffffffffffffff166108fc6033549081150290604051600060405180830381858888f19350505050158015610834573d6000803e3d6000fd5b506000603381905550565b6000602d6000602c548152602001908152602001600020549050905600a165627a7a72305820ecce98a3900139191070cb9b7dc647082ef133a418a4827e9ec4194993b1b1f30029",
  "source": "pragma solidity ^0.4.23;\nimport \"./safeMath.sol\";\n\ncontract FiftyFifty{\n    using SafeMath for uint;\n    uint[11] betValues = [0.125 ether, 0.250 ether, 0.500 ether, 1.00 ether, 2.00 ether, 4.00 ether, 8.00 ether, 16.00 ether, 32.00 ether, 64.00 ether];\n    uint[11] returnValues = [0.2375 ether, 0.475 ether, 0.950 ether, 1.90 ether, 3.80 ether, 7.60 ether, 15.20 ether, 30.40 ether, 60.80 ether, 121.60 ether];\n    uint[11] jackpotValues = [0.010 ether, 0.020 ether, 0.040 ether, 0.080 ether, 0.16 ether, 0.32 ether, 0.64 ether, 1.28 ether, 2.56 ether, 5.12 ether];\n    uint[11] fees = [0.0025 ether, 0.005 ether, 0.010 ether, 0.020 ether, 0.040 ether, 0.080 ether, 0.16 ether, 0.32 ether, 0.64 ether, 1.28 ether];\n    uint roundNumber;\n    mapping(uint => uint) jackpot;\n    mapping(uint => address[]) roundToUsers;\n    uint jackpotBlockNum;\n    uint jackpotLength = 2 minutes;\n    address currentUser;\n    address owner;\n    uint ownerDeposit;\n\n    event Jackpot(address indexed _user, uint _value, uint indexed _round);\n    event Bet(address indexed _winner,address indexed _looser,uint _bet, uint _payBack);\n\n\n    constructor() public {\n        owner = msg.sender;\n        roundNumber = 1;\n    }\n\n    modifier onlyOwner () {\n        require(msg.sender == owner);\n        _;\n    }\n\n    function() public payable {\n        //送金額が設定した額と違かったら弾く\n        uint valueNumber = checkValue(msg.value);\n        //jackpotの時間になっていた場合\n        uint randJackpot = uint(blockhash(block.number - 1)) % 10000;\n        if(randJackpot == 0){\n            uint randJackpotUser = uint(blockhash(block.number - 1)) % roundToUsers[roundNumber].length;\n            address user = roundToUsers[roundNumber][randJackpot];\n            uint jp = jackpot[roundNumber];\n            user.transfer(jp);\n            jackpot[roundNumber] = 0;\n            emit Jackpot(user,jp,roundNumber);\n            roundNumber = roundNumber.add(1);\n        }\n        //currentUserがいるかどうかで分ける\n        if(currentUser == address(0)){\n            //currentUser がいない場合、リクエストを投げたuserがcurrentUserになる\n            currentUser = msg.sender;\n            roundToUsers[roundNumber].push(currentUser);\n        }else{\n            roundToUsers[roundNumber].push(msg.sender);\n            uint rand = uint(blockhash(block.number-1)) % 2;\n            jackpot[roundNumber] = jackpot[roundNumber].add(jackpotValues[valueNumber]);\n            ownerDeposit = ownerDeposit.add(fees[valueNumber]);\n            if(rand == 0){\n                currentUser.transfer(returnValues[valueNumber]);\n                emit Bet(currentUser, msg.sender, returnValues[valueNumber], betValues[valueNumber]);\n            }else{\n                msg.sender.transfer(returnValues[valueNumber]);\n                emit Bet(currentUser, msg.sender, returnValues[valueNumber], betValues[valueNumber]);\n            }\n            currentUser = address(0);\n        }\n    }\n\n    function checkValue(uint sendValue) internal returns(uint) {\n        uint value = sendValue;\n        uint num = 0;\n        while (sendValue != betValues[num]){\n            if(num == 11){\n                revert();\n            }\n            num = num.add(1);\n        }\n        return num;\n    }\n\n    function withdrawDeposit() public onlyOwner{\n        owner.transfer(ownerDeposit);\n        ownerDeposit = 0;\n    }\n\n    function currentJackpot() public view  returns(uint){\n        return jackpot[roundNumber];\n    }\n\n}\n",
  "sourcePath": "/Users/yamamotojirou/WebstormProjects/fiftyfifty/fif/contracts/fiftyfifty.sol",
  "compiler": {
    "name": "solc",
    "version": "0.4.24+commit.e67f0147.Emscripten.clang"
  },
  "schemaVersion": "2.0.1",
  "updatedAt": "2018-08-22T11:16:31.110Z"
}